:100000000C942A000C94AD010C94BE010C94470092
:100010000C9447000C9496010C9447000C944700F4
:100020000C9447000C9447000C9447000C94470034
:100030000C9447000C9447000C9447000C94470024
:100040000C9447000C9447000C9447000C94470014
:100050000C94470011241FBECFE5D8E0DEBFCDBF12
:1000600010E0A0E6B0E0E2E8F1E102C005900D92F8
:10007000A436B107D9F720E0A4E6B0E001C01D9294
:10008000AC36B207E1F70E94DA020C94BF080C9478
:1000900000008FB780688FBF85B7836085BF85B745
:1000A0008C6085BF8BB7806C8BBF89B7806489BF3C
:1000B0000E946A040E94660564E482E00E940702CE
:1000C00064E483E00E94070262E480E00E940C0284
:1000D00062E481E00E940C0262E482E00E940C0271
:1000E00062E483E00E940C0261E484E00E944E021C
:1000F00061E485E00E944E0261E480E00E944E02CD
:1001000061E481E00E944E0261E482E00E944E02BE
:1001100061E483E00E944E0261E480E30E945802A1
:1001200080E00895CF93DF93813009F44DC020F033
:10013000823009F491C0D8C062E48FEF0E94490276
:1001400062E480E00E94110261E485E00E945302B3
:1001500061E48AE00E94580260E070E88BE395E475
:100160000E94E505EC0181E090E00E946E0508C068
:1001700020E030E048E452E461E480E30E945D0264
:1001800080916600909167008C179D0788F380E04E
:1001900090E00E946E0514BC1092670010926600F9
:1001A00062E48FEF0E94490262E482E00E94110241
:1001B00061E480E30E94580260E070E08AEF93E41B
:1001C0000E94390580E091C062E48FEF0E944902ED
:1001D00062E481E00E94110261E485E00E94530222
:1001E00061E48AE00E94580260E070E08AEF94E4E3
:1001F0000E94E505EC0181E090E00E946E0508C0D8
:1002000020E030E040EF51E461E480E30E945D02D1
:1002100080916600909167008C179D0788F380E0BD
:1002200090E00E946E0514BC109267001092660068
:1002300062E48FEF0E94490262E482E00E941102B0
:1002400061E480E30E94580260E070E08AEF93E48A
:100250000E94390580E049C062E48FEF0E944902A4
:1002600062E483E00E94110261E489E00E9453028B
:1002700061E486E00E94580260E070E48CE195E45D
:100280000E94E505EC0181E090E00E946E0508C047
:1002900020E030E040EA51E461E480E30E945D0246
:1002A00080916600909167008C179D0788F380E02D
:1002B00090E00E946E0514BC1092670010926600D8
:1002C00062E48FEF0E94490262E482E00E94110220
:1002D00061E480E30E94580260E070E08AEF93E4FA
:1002E0000E94390580E001C081E0DF91CF9108953F
:1002F0000E944900809165008130E1F760E070E084
:100300008AE794E40E9439050CC080E00E949200C4
:1003100082E00E94920081E00E94920082E00E94AE
:10032000920080916400813081F708951F920F92AE
:100330000FB60F9211248F939F9380916600909136
:100340006700019690936700809366009F918F915C
:100350000F900FBE0F901F9018951F920F920FB61F
:100360000F9211248F9381E08093650010926400B6
:100370008F910F900FBE0F901F9018951F920F92A4
:100380000FB60F921124EF92FF920F931F932F93AA
:100390003F934F935F936F937F938F939F93AF930D
:1003A000BF93EF93FF938FB780688FBF81E08093F7
:1003B00064001092650061E480E30E94580262E4E8
:1003C0008FEF0E9449020AC0E12CF12C0AEF13E4DE
:1003D000A801970162E482E00E941B0280916500FF
:1003E000813091F7FF91EF91BF91AF919F918F91E4
:1003F0007F916F915F914F913F912F911F910F913D
:10040000FF90EF900F900FBE0F901F90189540E057
:100410000E94DF0280E0089541E00E94DF0280E058
:10042000089541E00E947C0380E0089540E00E942E
:100430007C0380E008958F929F92AF92BF92CF92FB
:10044000DF92EF92FF920F931F93CF93DF93C82F0A
:10045000D62F49015A01670178010E941102C50196
:10046000B4010E9439056D2F8C2F0E941602C7011E
:10047000B6010E94390580E0DF91CF911F910F9165
:10048000FF90EF90DF90CF90BF90AF909F908F90B4
:10049000089540E00E94190480E0089541E00E9420
:1004A000DF0280E0089541E00E94190480E0089591
:1004B00040E00E94190480E008958F929F92AF92CD
:1004C000BF92CF92DF92EF92FF92CF93DF93C82F2C
:1004D000D62F69017A0120E030E048E452E4C701F8
:1004E000B6010E9429081816CCF420E030E048E458
:1004F00052E4C701B6010E94350620916000309198
:10050000610040916200509163000E942E089B019F
:10051000AC01C701B6010E94360618C0A7019601BA
:1005200060E070E088E492E40E943506209160006B
:100530003091610040916200509163000E942E084A
:100540009B01AC01C701B6010E94350620E030E0F6
:1005500048EC52E40E94B90620E030E048EC52E456
:100560000E942E086B017C019B01AC0160E070E0F1
:1005700088EC92E40E9435064B015C016D2F8C2FB4
:100580000E945302C701B6010E9439056D2F8C2FBE
:100590000E945802C501B4010E94390580E0DF9134
:1005A000CF91FF90EF90DF90CF90BF90AF909F9052
:1005B0008F9008950E94780180E090E00895623461
:1005C00069F118F4613441F08DC0633409F448C016
:1005D000643409F466C086C041110FC04AB321E0FB
:1005E00030E0B90102C0660F771F8A95E2F7CB01B0
:1005F000809584238ABB80E00895413009F074C05F
:100600004AB321E030E0B90102C0660F771F8A9536
:10061000E2F7CB01842B8ABB80E0089541110FC023
:1006200047B321E030E0B90102C0660F771F8A9519
:10063000E2F7CB018095842387BB80E008954130A9
:1006400009F054C047B321E030E0B90102C0660FA1
:10065000771F8A95E2F7CB01842B87BB80E0089552
:1006600041110FC044B321E030E0B90102C0660F70
:10067000771F8A95E2F7CB018095842384BB80E0C5
:1006800008954130A9F544B321E030E0B90102C03A
:10069000660F771F8A95E2F7CB01842B84BB80E03D
:1006A000089541110FC041B321E030E0B90102C00B
:1006B000660F771F8A95E2F7CB018095842381BB73
:1006C00080E008954130B1F441B321E030E0B90158
:1006D00002C0660F771F8A95E2F7CB01842B81BB9E
:1006E00080E0089581E0089581E0089581E0089513
:1006F00081E0089581E00895623469F118F461346D
:1007000041F08DC0633409F448C0643409F466C014
:1007100086C041110FC04BB321E030E0B90102C0E7
:10072000660F771F8A95E2F7CB01809584238BBBF8
:1007300080E00895413009F074C04BB321E030E00F
:10074000B90102C0660F771F8A95E2F7CB01842BAF
:100750008BBB80E0089541110FC048B321E030E029
:10076000B90102C0660F771F8A95E2F7CB01809529
:10077000842388BB80E00895413009F054C048B319
:1007800021E030E0B90102C0660F771F8A95E2F7D9
:10079000CB01842B88BB80E0089541110FC045B385
:1007A00021E030E0B90102C0660F771F8A95E2F7B9
:1007B000CB018095842385BB80E008954130A9F565
:1007C00045B321E030E0B90102C0660F771F8A957A
:1007D000E2F7CB01842B85BB80E0089541110FC067
:1007E00042B321E030E0B90102C0660F771F8A955D
:1007F000E2F7CB018095842382BB80E008954130ED
:10080000B1F442B321E030E0B90102C0660F771FB6
:100810008A95E2F7CB01842B82BB80E0089581E0CA
:10082000089581E0089581E0089581E0089581E0D0
:1008300008956234C1F018F4613431F041C063347A
:1008400009F1643471F13CC0411106C09BB380953D
:1008500089238BBB80E008954130A1F59BB3892BA0
:100860008BBB80E00895411106C098B38095892321
:1008700088BB80E00895413039F598B3892B88BB57
:1008800080E00895411106C095B38095892385BB0A
:1008900080E008954130D1F495B3892B85BB80E089
:1008A0000895411106C092B38095892382BB80E0F0
:1008B0000895413069F492B3892B82BB80E008959A
:1008C00081E0089581E0089581E0089581E0089530
:1008D00081E0089583B78F7E83BF83B78F7D83BF09
:1008E00080E008958B30910509F454C038F48130CC
:1008F0009105F1F098F0089729F160C080349105D6
:1009000059F120F40C9709F44FC058C0811521E02B
:10091000920761F18115944099F150C083B78E7FA1
:1009200083BF83B78D7F83BF83B78B7F83BF4FC068
:1009300083B7816083BF83B78D7F83BF83B78B7F8E
:1009400083BF45C083B78E7F83BF83B7826083BF79
:1009500083B78B7F83BF3BC083B7816083BF83B77F
:10096000826083BF83B78B7F83BF31C083B78E7FA5
:1009700083BF83B78D7F83BF83B7846083BF27C066
:1009800083B7816083BF83B78D7F83BF83B7846064
:1009900083BF1DC083B7816083BF83B7826083BF7D
:1009A00083B78B7F83BF13C083B7816083BF83B757
:1009B000826083BF83B7846083BF09C083B78E7FA3
:1009C00083BF83B78D7F83BF83B78B7F83BF80E077
:1009D0000895CF92DF92EF92FF92CF93DF9300D0F2
:1009E000CDB7DEB71A8219822FE632E143E85AE327
:1009F0000E942E086B017C012DEB37E346E859E39A
:100A00000E94B9060E94A2060E942B077A8369837E
:100A10002DEB37E346E855E3C701B6010E94B9065E
:100A20006B017C0169817A8180E090E00E945A0725
:100A30009B01AC01C701B6010E94B9060E94A20643
:100A40009B01AC0160E070E080E893E40E94350611
:100A50000E942B0770936B0060936A0089819A81D2
:100A60000F900F90DF91CF91FF90EF90DF90CF909C
:100A70000895CF92DF92EF92FF92CF93DF936B01B5
:100A80007C010E946A04C701B6010E94E904EC01DE
:100A900080916A0082BF81E090E00E94720420E0B1
:100AA00030E008C008B600FEFDCF88B7816088BF7F
:100AB0002F5F3F4F2C173D07A8F313BE80E0DF9157
:100AC000CF91FF90EF90DF90CF90089585B58F7E06
:100AD00085BD85B58F7D85BD80E008958B309105FE
:100AE00009F454C038F481309105F1F098F008977A
:100AF00029F160C08034910559F120F40C9709F474
:100B00004FC058C0811521E0920761F181159440D2
:100B100099F150C085B58E7F85BD85B58D7F85BD2A
:100B200085B58B7F85BD4FC085B5816085BD85B599
:100B30008D7F85BD85B58B7F85BD45C085B58E7F95
:100B400085BD85B5826085BD85B58B7F85BD3BC084
:100B500085B5816085BD85B5826085BD85B58B7F96
:100B600085BD31C085B58E7F85BD85B58D7F85BD41
:100B700085B5846085BD27C085B5816085BD85B597
:100B80008D7F85BD85B5846085BD1DC085B58160BF
:100B900085BD85B5826085BD85B58B7F85BD13C05C
:100BA00085B5816085BD85B5826085BD85B584606C
:100BB00085BD09C085B58E7F85BD85B58D7F85BD19
:100BC00085B58B7F85BD80E00895CF92DF92EF924F
:100BD000FF92CF93DF9300D0CDB7DEB71A82198290
:100BE0002FE632E143E85AE30E942E086B017C01B4
:100BF0002DEB37E346E859E30E94B9060E94A206AE
:100C00000E942B077A8369832DEB37E346E855E38F
:100C1000C701B6010E94B9066B017C0169817A8126
:100C200080E090E00E945A079B01AC01C701B60129
:100C30000E94B9060E94A2069B01AC0160E070E030
:100C400080E893E40E9435060E942B0770936900A8
:100C50006093680089819A810F900F90DF91CF9106
:100C6000FF90EF90DF90CF9008955058BB27AA27B0
:100C70000E944D060C94D7070E94C90738F00E94C5
:100C8000D00720F039F49F3F19F426F40C94C607DE
:100C90000EF4E095E7FB0C949707E92F0E94E80714
:100CA00058F3BA17620773078407950720F079F4A1
:100CB000A6F50C9422080EF4E0950B2EBA2FA02D69
:100CC0000B01B90190010C01CA01A0011124FF27F9
:100CD000591B99F0593F50F4503E68F11A16F040F4
:100CE000A22F232F342F4427585FF3CF46953795F3
:100CF0002795A795F0405395C9F77EF41F16BA0BB8
:100D0000620B730B840BBAF09150A1F0FF0FBB1F65
:100D1000661F771F881FC2F70EC0BA0F621F731FAE
:100D2000841F48F4879577956795B795F7959E3F0B
:100D300008F0B0CF9395880F08F09927EE0F97959C
:100D4000879508950E940A0890F09F3748F4911102
:100D500016F40C94230860E070E080E89FE30895A7
:100D600026F01B16611D711D811D0C949D070C94AE
:100D7000B8070E94CD060C94D7070E94D00758F000
:100D80000E94C90740F029F45F3F29F00C949707AF
:100D900051110C9423080C94C6070E94E80768F3CD
:100DA0009923B1F3552391F3951B550BBB27AA2724
:100DB00062177307840738F09F5F5F4F220F331F5E
:100DC000441FAA1FA9F335D00E2E3AF0E0E832D026
:100DD00091505040E695001CCAF72BD0FE2F29D029
:100DE000660F771F881FBB1F261737074807AB07FB
:100DF000B0E809F0BB0B802DBF01FF2793585F4F70
:100E00003AF09E3F510578F00C9497070C94230814
:100E10005F3FE4F3983ED4F3869577956795B79551
:100E2000F7959F5FC9F7880F911D9695879597F95C
:100E30000895E1E0660F771F881FBB1F62177307D5
:100E40008407BA0720F0621B730B840BBA0BEE1FEA
:100E500088F7E09508950E94F00788F09F5798F072
:100E6000B92F9927B751B0F0E1F0660F771F881FAF
:100E7000991F1AF0BA95C9F714C0B13091F00E94C9
:100E80002208B1E008950C942208672F782F882754
:100E9000B85F39F0B93FCCF3869577956795B395F0
:100EA000D9F73EF490958095709561957F4F8F4F5F
:100EB0009F4F0895E89409C097FB3EF49095809564
:100EC000709561957F4F8F4F9F4F9923A9F0F92F10
:100ED00096E9BB279395F695879577956795B7958E
:100EE000F111F8CFFAF4BB0F11F460FF1BC06F5F74
:100EF0007F4F8F4F9F4F16C0882311F096E911C086
:100F0000772321F09EE8872F762F05C0662371F0A6
:100F100096E8862F70E060E02AF09A95660F771FBA
:100F2000881FDAF7880F9695879597F9089597F9AE
:100F30009F6780E870E060E00895882371F477236C
:100F400021F09850872B762F07C0662311F499273C
:100F50000DC09051862B70E060E02AF09A95660FE4
:100F6000771F881FDAF7880F9695879597F9089568
:100F70009F3F31F0915020F4879577956795B7950D
:100F8000880F911D9695879597F908959FEF80ECAE
:100F9000089500240A9416161706180609060895DF
:100FA00000240A9412161306140605060895092E45
:100FB0000394000C11F4882352F0BB0F40F4BF2BB4
:100FC00011F460FF04C06F5F7F4F8F4F9F4F0895F4
:100FD00057FD9058440F551F59F05F3F71F04795EA
:100FE000880F97FB991F61F09F3F79F087950895CF
:100FF000121613061406551FF2CF4695F1DF08C0EE
:10100000161617061806991FF1CF8695710561050A
:10101000089408950E94F007A0F0BEE7B91788F47D
:10102000BB279F3860F41616B11D672F782F8827CD
:10103000985FF7CF869577956795B11D939596390B
:10104000C8F30895E894BB2766277727CB0197F963
:1010500008950E949B0808F48FEF08950E944108AC
:101060000C94D7070E94C90738F00E94D00720F0DF
:10107000952311F00C9497070C94C60711240C9437
:1010800023080E94E80770F3959FC1F3950F50E085
:10109000551F629FF001729FBB27F00DB11D639F2A
:1010A000AA27F00DB11DAA1F649F6627B00DA11DD0
:1010B000661F829F2227B00DA11D621F739FB00D76
:1010C000A11D621F839FA00D611D221F749F3327E6
:1010D000A00D611D231F849F600D211D822F762F7F
:1010E0006A2F11249F5750409AF0F1F088234AF05C
:1010F000EE0FFF1FBB1F661F771F881F91505040C8
:10110000A9F79E3F510580F00C9497070C94230893
:101110005F3FE4F3983ED4F3869577956795B7954E
:10112000F795E7959F5FC1F7FE2B880F911D969568
:10113000879597F90895990F0008550FAA0BE0E8D5
:10114000FEEF16161706E807F907C0F01216130689
:10115000E407F50798F0621B730B840B950B39F4C9
:101160000A2661F0232B242B252B21F408950A262F
:1011700009F4A140A6958FEF811D811D0895F89473
:02118000FFCF9F
:0411820031082C3DC7
:00000001FF
