S01700006D6F76696E675F6361725F76312E302E7372656384
S11300000C942A000C943C000C943C000C943C008E
S11300100C943C000C943C000C943C000C943C006C
S11300200C943C000C943C000C943C000C943C005C
S11300300C943C000C943C000C943C000C943C004C
S11300400C943C000C943C000C943C000C943C003C
S11300500C943C0011241FBECFE5D8E0DEBFCDBF19
S113006020E0A0E6B0E001C01D92A436B207E1F79B
S11300700E9426010C94A5020C9400000E942902FF
S11300800E948A0280E00E945A0081E00E945A0085
S113009080E00E94A20081E00E94A20080E00E9411
S11300A0830081E00E948300089561E080E00E9463
S11300B0BC000895882319F0813091F022C041E0FA
S11300C060E080E00E942B0141E061E080E00E945A
S11300D02B0141E064E080E00E942B0180E0089560
S11300E041E062E080E00E942B0141E063E080E0B7
S11300F00E942B0141E065E080E00E942B0180E03A
S1130100089581E00895882319F0813069F018C0BA
S113011041E060E080E00E94AA0140E061E080E00C
S11301200E94AA0180E0089541E062E080E00E941C
S1130130AA0140E063E080E00E94AA0180E0089503
S113014081E00895882319F0813041F013C040E024
S113015064E080E00E94AA0180E0089541E062E04A
S113016080E00E94AA0141E063E080E00E94AA01CD
S113017080E0089581E00895882319F08130A1F189
S11301800895611117C041E064E080E00E94AA0173
S113019060E470E080E090E00E94560240E064E099
S11301A080E00E94AA0160E470E080E090E00E9498
S11301B056020895613009F048C041E064E080E0EF
S11301C00E94AA0160EC70E080E090E00E94560278
S11301D040E064E080E00E94AA0160EC71E080E00D
S11301E090E00E9456020895611117C041E065E055
S11301F080E00E94AA0160E470E080E090E00E9448
S1130200560240E064E080E00E94AA0160E470E0ED
S113021080E090E00E94560208956130B1F441E01C
S113022065E080E00E94AA0160EC70E080E090E06C
S11302300E94560240E065E080E00E94AA0160EC62
S113024071E080E090E00E94560208950E943E0012
S11302500E945500FDCF442319F04130E9F174C0E8
S1130260813099F028F08230E9F0833041F16EC09A
S11302702AB381E090E002C0880F991F6A95E2F7E3
S1130280809582238ABB80E0089527B381E090E0C3
S113029002C0880F991F6A95E2F78095822387BB75
S11302A080E0089524B381E090E002C0880F991F94
S11302B06A95E2F78095822384BB80E0089521B398
S11302C081E090E002C0880F991F6A95E2F780955B
S11302D0822381BB80E00895813091F028F0823040
S11302E0D9F0833029F134C02AB381E090E002C010
S11302F0880F991F6A95E2F7822B8ABB80E00895E4
S113030027B381E090E002C0880F991F6A95E2F755
S1130310822B87BB80E0089524B381E090E002C083
S1130320880F991F6A95E2F7822B84BB80E00895B9
S113033021B381E090E002C0880F991F6A95E2F72B
S1130340822B81BB80E0089581E0089581E00895C7
S113035081E00895442319F04130E9F174C08130FB
S113036099F028F08230E9F0833041F16EC02BB36C
S113037081E090E002C0880F991F6A95E2F78095AA
S113038082238BBB80E0089528B381E090E002C013
S1130390880F991F6A95E2F78095822388BB80E0D5
S11303A0089525B381E090E002C0880F991F6A95F3
S11303B0E2F78095822385BB80E0089522B381E033
S11303C090E002C0880F991F6A95E2F78095822316
S11303D082BB80E00895813091F028F08230D9F01A
S11303E0833029F134C02BB381E090E002C0880F40
S11303F0991F6A95E2F7822B8BBB80E0089528B39E
S113040081E090E002C0880F991F6A95E2F7822B81
S113041088BB80E0089525B381E090E002C0880F96
S1130420991F6A95E2F7822B85BB80E0089522B379
S113043081E090E002C0880F991F6A95E2F7822B51
S113044082BB80E0089581E0089581E0089581E011
S1130450089583B78F7783BF83B78F7B83BF83B7B9
S1130460877F83BF83B78F7E83BF83B78F7D83BF2F
S11304708FB780688FBF89B7816089BF80E0089596
S113048083B7816083BF83B78D7F83BF83B78B7F3F
S113049083BF80E0089583B78E7F83BF83B78D7F4A
S11304A083BF83B78B7F83BF80E00895DC01CB01DA
S11304B0689413F8B695A795979587951694D1F7F0
S11304C08093600090936100A0936200B0936300F6
S11304D012BE0E94400240E050E0BA010AC008B6D1
S11304E000FEFDCF88B7816088BF4F5F5F4F6F4FBD
S11304F07F4F8091600090916100A0916200B09163
S11305006300481759076A077B0748F30E944B02A8
S113051080E008958FB58E7F8FBD8FB58D7F8FBDA1
S11305208EB5877F8EBD8EB58F7E8EBD8FB5846070
S11305308FBD8FB588608FBD8FB780688FBF89B737
S11105409AB784609ABF89BF0895F894FFCFDC
S9030000FC
