S01700006D6F76696E675F6361725F76312E302E7372656384
S11300000C942A000C943C000C943C000C943C008E
S11300100C943C000C943C000C943C000C943C006C
S11300200C943C000C943F010C943C000C943C0058
S11300300C943C000C943C000C943C000C943C004C
S11300400C943C000C943C000C943C000C943C003C
S11300500C943C0011241FBECFE5D8E0DEBFCDBF19
S113006020E0A0E6B0E001C01D92AC36B207E1F793
S11300700E94C6010C948F040C94000080E00E943E
S1130080640180E00E94AC0180E00E948D010E9426
S1130090C9020E9424030895109260001092610026
S11300A0109262001092630068EB7BE080E090E0C5
S11300B00E9455036093640070936500809366000A
S11300C0909367000E943F0316C041E064E080E023
S11300D00E944A0260E470E080E090E00E94F60230
S11300E040E064E080E00E944A0260E470E080E066
S11300F090E00E94F602409160005091610060918E
S11301006200709163008091640090916500A091F9
S11301106600B0916700481759076A077B07A8F281
S11301200E944A03109260001092610010926200D3
S11301301092630068EE73E080E090E00E94550343
S113014060936400709365008093660090936700E9
S11301500E943F0303C080E00E94AC014091600014
S1130160509161006091620070916300809164001D
S113017090916500A0916600B091670048175907F7
S11301806A077B0740F30E944A03109260001092B2
S11301906100109262001092630068EB7BE080E0E3
S11301A090E00E945503609364007093650080930F
S11301B06600909367000E943F0316C041E064E02C
S11301C080E00E944A0260EC70E080E090E00E94CF
S11301D0F60240E064E080E00E944A0260EC71E0D4
S11301E080E090E00E94F60240916000509161002E
S11301F06091620070916300809164009091650049
S1130200A0916600B0916700481759076A077B07F9
S1130210A8F20E944A0310926000109261001092AA
S113022062001092630068EE73E080E090E00E9448
S11302305503609364007093650080936600909307
S113024067000E943F0303C080E00E94AC0140911C
S11302506000509161006091620070916300809130
S1130260640090916500A0916600B0916700481702
S113027059076A077B0740F30E944A0308951F92B7
S11302800F920FB60F9211248F939F93AF93BF9346
S11302908091600090916100A0916200B091630030
S11302A00196A11DB11D8093600090936100A093FD
S11302B06200B0936300BF91AF919F918F910F90B3
S11302C00FBE0F901F901895882319F0813091F07C
S11302D022C041E060E080E00E94CB0141E061E0A7
S11302E080E00E94CB0141E064E080E00E94CB0109
S11302F080E0089541E062E080E00E94CB0141E0AB
S113030063E080E00E94CB0141E065E080E00E9470
S1130310CB0180E0089581E00895882319F08130AD
S113032069F018C041E060E080E00E944A0240E0C9
S113033061E080E00E944A0280E0089541E062E0CA
S113034080E00E944A0240E063E080E00E944A02AA
S113035080E0089581E00895882319F0813041F008
S113036013C040E064E080E00E944A0280E0089507
S113037041E062E080E00E944A0241E063E080E004
S11303800E944A0280E0089581E008950E943E00A0
S11303900E944C00FDCF442319F04130E9F174C0B0
S11303A0813099F028F08230E9F0833041F16EC059
S11303B02AB381E090E002C0880F991F6A95E2F7A2
S11303C0809582238ABB80E0089527B381E090E082
S11303D002C0880F991F6A95E2F78095822387BB34
S11303E080E0089524B381E090E002C0880F991F53
S11303F06A95E2F78095822384BB80E0089521B357
S113040081E090E002C0880F991F6A95E2F7809519
S1130410822381BB80E00895813091F028F08230FE
S1130420D9F0833029F134C02AB381E090E002C0CE
S1130430880F991F6A95E2F7822B8ABB80E00895A2
S113044027B381E090E002C0880F991F6A95E2F714
S1130450822B87BB80E0089524B381E090E002C042
S1130460880F991F6A95E2F7822B84BB80E0089578
S113047021B381E090E002C0880F991F6A95E2F7EA
S1130480822B81BB80E0089581E0089581E0089586
S113049081E00895442319F04130E9F174C08130BA
S11304A099F028F08230E9F0833041F16EC02BB32B
S11304B081E090E002C0880F991F6A95E2F7809569
S11304C082238BBB80E0089528B381E090E002C0D2
S11304D0880F991F6A95E2F78095822388BB80E094
S11304E0089525B381E090E002C0880F991F6A95B2
S11304F0E2F78095822385BB80E0089522B381E0F2
S113050090E002C0880F991F6A95E2F780958223D4
S113051082BB80E00895813091F028F08230D9F0D8
S1130520833029F134C02BB381E090E002C0880FFE
S1130530991F6A95E2F7822B8BBB80E0089528B35C
S113054081E090E002C0880F991F6A95E2F7822B40
S113055088BB80E0089525B381E090E002C0880F55
S1130560991F6A95E2F7822B85BB80E0089522B338
S113057081E090E002C0880F991F6A95E2F7822B10
S113058082BB80E0089581E0089581E0089581E0D0
S1130590089583B78F7783BF83B78F7B83BF83B778
S11305A0877F83BF83B78F7E83BF83B78F7D83BFEE
S11305B08FB780688FBF89B7816089BF80E0089555
S11305C083B7816083BF83B78D7F83BF83B78B7FFE
S11305D083BF80E0089583B78E7F83BF83B78D7F09
S11305E083BF83B78B7F83BF80E00895BB27A92F88
S11305F0982F872F8093680090936900A0936A00D6
S1130600B0936B0012BE0E94E00240E050E0BA01D9
S11306100AC008B600FEFDCF88B7816088BF4F5F6F
S11306205F4F6F4F7F4F8091680090916900A09158
S11306306A00B0916B00481759076A077B0748F3B3
S11306400E94EB0280E008958FB58E7F8FBD8FB539
S11306508D7F8FBD8EB5877F8EBD8EB58F7E8EBD0F
S11306608FB584608FBD8FB588608FBD8FB780686C
S11306708FBF89B79AB784609ABF89BF08958EB532
S113068081608EBD8EB58D7F8EBD8EB58B7F8EBD08
S113069080E008958EB58E7F8EBD8EB58D7F8EBD24
S11306A08EB58B7F8EBD81E008950E9401042FE6F4
S11306B032E143E852E40E9460030E94D2030895A9
S11306C00E9474030C9455040E944E0458F00E9436
S11306D0470440F029F45F3F29F00C943E04511183
S11306E00C9489040C9444040E94660468F39923CE
S11306F0B1F3552391F3951B550BBB27AA2762171A
S11307007307840738F09F5F5F4F220F331F441F26
S1130710AA1FA9F335D00E2E3AF0E0E832D091505A
S11307205040E695001CCAF72BD0FE2F29D0660F47
S1130730771F881FBB1F261737074807AB07B0E88A
S113074009F0BB0B802DBF01FF2793585F4F3AF090
S11307509E3F510578F00C943E040C9489045F3F4D
S1130760E4F3983ED4F3869577956795B795F79516
S11307709F5FC9F7880F911D9695879597F90895FE
S1130780E1E0660F771F881FBB1F6217730784079A
S1130790BA0720F0621B730B840BBA0BEE1F88F7A9
S11307A0E09508950E946E0488F09F5798F0B92F41
S11307B09927B751B0F0E1F0660F771F881F991F92
S11307C01AF0BA95C9F714C0B13091F00E948804A8
S11307D0B1E008950C948804672F782F8827B85FB8
S11307E039F0B93FCCF3869577956795B395D9F7EA
S11307F03EF490958095709561957F4F8F4F9F4FF4
S11308000895E89409C097FB3EF4909580957095FF
S113081061957F4F8F4F9F4F9923A9F0F92F96E948
S1130820BB279395F695879577956795B795F111BD
S1130830F8CFFAF4BB0F11F460FF1BC06F5F7F4F5A
S11308408F4F9F4F16C0882311F096E911C077236C
S113085021F09EE8872F762F05C0662371F096E875
S1130860862F70E060E02AF09A95660F771F881F44
S1130870DAF7880F9695879597F9089597F99F6702
S113088080E870E060E008959FEF80EC0895002414
S11308900A941616170618060906089500240A94E1
S11308A012161306140605060895092E0394000C67
S11308B011F4882352F0BB0F40F4BF2B11F460FFF6
S11308C004C06F5F7F4F8F4F9F4F089557FD90581F
S11308D0440F551F59F05F3F71F04795880F97FB00
S11308E0991F61F09F3F79F08795089512161306BA
S11308F01406551FF2CF4695F1DF08C016161706E9
S11309001806991FF1CF869571056105089408951D
S1130910E894BB2766277727CB0197F90895F894C5
S1050920FFCF03
S9030000FC
