S01700006D6F76696E675F6361725F76312E302E7372656384
S11300000C942A000C943C000C943C000C943C008E
S11300100C943C000C943C000C943C000C943C006C
S11300200C943C000C9479000C943C000C943C001F
S11300300C943C000C943C000C943C000C943C004C
S11300400C943C000C943C000C943C000C943C003C
S11300500C943C0011241FBECFE5D8E0DEBFCDBF19
S113006020E0A0E6B0E001C01D92A836B207E1F797
S11300700E9474010C9443040C9400000E947702C3
S11300800E94D80280E00E949E0081E00E949E00AF
S113009080E00E94E60081E00E94E60080E00E9489
S11300A0C70081E00E94C700089560E777E180E01F
S11300B090E00E9409036093600070936100809354
S11300C06200909363000E94F30204C061E080E048
S11300D00E940A018091600090916100A0916200E9
S11300E0B0916300892B8A2B8B2B81F70E94FE022F
S11300F008951F920F920FB60F9211248F939F931E
S1130100AF93BF938091600090916100A0916200D1
S1130110B09163000197A109B109809360009093A5
S11301206100A0936200B0936300BF91AF919F916F
S11301308F910F900FBE0F901F901895882319F080
S1130140813091F022C041E060E080E00E947901BA
S113015041E061E080E00E94790141E064E080E0F8
S11301600E94790180E0089541E062E080E00E940D
S1130170790141E063E080E00E94790141E065E0BB
S113018080E00E94790180E0089581E00895882349
S113019019F0813069F018C041E060E080E00E940D
S11301A0F80140E061E080E00E94F80180E00895F9
S11301B041E062E080E00E94F80140E063E080E01A
S11301C00E94F80180E0089581E00895882319F0E1
S11301D0813091F01DC040E060E080E00E94F801B1
S11301E040E061E080E00E94F80140E064E080E0EB
S11301F00E94F80180E0089541E062E080E00E94FE
S1130200F80141E063E080E00E94F80180E0089595
S113021081E00895882319F08130A1F108956111D6
S113022017C041E064E080E00E94F80160E472E0FD
S113023080E090E00E94A40240E064E080E00E943C
S1130240F80160E470E080E090E00E94A402089568
S1130250613009F048C041E064E080E00E94F801A8
S113026060E470E080E090E00E94A40240E064E07A
S113027080E00E94F80160E472E080E090E00E9477
S1130280A4020895611117C041E065E080E00E9476
S1130290F80160E470E080E090E00E94A40240E095
S11302A064E080E00E94F80160E470E080E090E0A7
S11302B00E94A40208956130B1F441E065E080E059
S11302C00E94F80160EC70E080E090E00E94A402DB
S11302D040E065E080E00E94F80160EC71E080E0BD
S11302E090E00E94A40208950E943E000E945500DE
S11302F0FFCF442319F04130E9F174C0813099F003
S113030028F08230E9F0833041F16EC02AB381E0F5
S113031090E002C0880F991F6A95E2F780958223C6
S11303208ABB80E0089527B381E090E002C0880F83
S1130330991F6A95E2F78095822387BB80E0089530
S113034024B381E090E002C0880F991F6A95E2F718
S11303508095822384BB80E0089521B381E090E0FE
S113036002C0880F991F6A95E2F78095822381BBAA
S113037080E00895813091F028F08230D9F0833004
S113038029F134C02AB381E090E002C0880F991F9C
S11303906A95E2F7822B8ABB80E0089527B381E057
S11303A090E002C0880F991F6A95E2F7822B87BB01
S11303B080E0089524B381E090E002C0880F991F83
S11303C06A95E2F7822B84BB80E0089521B381E033
S11303D090E002C0880F991F6A95E2F7822B81BBD7
S11303E080E0089581E0089581E0089581E0089512
S11303F0442319F04130E9F174C0813099F028F0B8
S11304008230E9F0833041F16EC02BB381E090E09B
S113041002C0880F991F6A95E2F7809582238BBBEF
S113042080E0089528B381E090E002C0880F991F0E
S11304306A95E2F78095822388BB80E0089525B30E
S113044081E090E002C0880F991F6A95E2F78095D9
S1130450822385BB80E0089522B381E090E002C04E
S1130460880F991F6A95E2F78095822382BB80E00A
S11304700895813091F028F08230D9F0833029F149
S113048034C02BB381E090E002C0880F991F6A95B5
S1130490E2F7822B8BBB80E0089528B381E090E0E3
S11304A002C0880F991F6A95E2F7822B88BB80E00F
S11304B0089525B381E090E002C0880F991F6A95E2
S11304C0E2F7822B85BB80E0089522B381E090E0BF
S11304D002C0880F991F6A95E2F7822B82BB80E0E5
S11304E0089581E0089581E0089581E0089583B737
S11304F08F7783BF83B78F7B83BF83B7877F83BFA8
S113050083B78F7E83BF83B78F7D83BF8FB78068A8
S11305108FBF89B7816089BF80E0089583B7816008
S113052083BF83B78D7F83BF83B78B7F83BF80E017
S1130530089583B78E7F83BF83B78D7F83BF83B7CF
S11305408B7F83BF80E00895DC01CB01689413F8AE
S1130550B695A795979587951694D1F780936400DF
S113056090936500A0936600B093670012BE0E944A
S11305708E0240E050E0BA010AC008B600FEFDCF8A
S113058088B7816088BF4F5F5F4F6F4F7F4F809107
S1130590640090916500A0916600B09167004817CF
S11305A059076A077B0748F30E94990280E008957F
S11305B08FB58E7F8FBD8FB58D7F8FBD8EB5877FB5
S11305C08EBD8EB58F7E8EBD8FB584608FBD8FB589
S11305D088608FBD8FB780688FBF89B79AB78460F2
S11305E09ABF89BF08958EB581608EBD8EB58D7F0B
S11305F08EBD8EB58B7F8EBD80E008958EB58E7FC7
S11306008EBD8EB58D7F8EBD8EB58B7F8EBD81E008
S113061008950E94B5032FE632E143E852E40E94B4
S113062014030E94860308950E9428030C9409046D
S11306300E94020458F00E94FB0340F029F45F3F3B
S113064029F00C94F20351110C943D040C94F8031A
S11306500E941A0468F39923B1F3552391F3951B6F
S1130660550BBB27AA2762177307840738F09F5FCF
S11306705F4F220F331F441FAA1FA9F335D00E2E3C
S11306803AF0E0E832D091505040E695001CCAF7A9
S11306902BD0FE2F29D0660F771F881FBB1F26176C
S11306A037074807AB07B0E809F0BB0B802DBF0143
S11306B0FF2793585F4F3AF09E3F510578F00C9412
S11306C0F2030C943D045F3FE4F3983ED4F3869523
S11306D077956795B795F7959F5FC9F7880F911D33
S11306E09695879597F90895E1E0660F771F881F1F
S11306F0BB1F621773078407BA0720F0621B730BD2
S1130700840BBA0BEE1F88F7E09508950E9422042B
S113071088F09F5798F0B92F9927B751B0F0E1F0BE
S1130720660F771F881F991F1AF0BA95C9F714C06E
S1130730B13091F00E943C04B1E008950C943C0463
S1130740672F782F8827B85F39F0B93FCCF38695A7
S113075077956795B395D9F73EF490958095709504
S113076061957F4F8F4F9F4F0895E89409C097FB81
S11307703EF490958095709561957F4F8F4F9F4F74
S11307809923A9F0F92F96E9BB279395F6958795B8
S113079077956795B795F111F8CFFAF4BB0F11F47B
S11307A060FF1BC06F5F7F4F8F4F9F4F16C0882322
S11307B011F096E911C0772321F09EE8872F762F58
S11307C005C0662371F096E8862F70E060E02AF099
S11307D09A95660F771F881FDAF7880F9695879585
S11307E097F9089597F99F6780E870E060E00895AD
S11307F09FEF80EC089500240A9416161706180635
S11308000906089500240A94121613061406050610
S11308100895092E0394000C11F4882352F0BB0FA1
S113082040F4BF2B11F460FF04C06F5F7F4F8F4F04
S11308309F4F089557FD9058440F551F59F05F3F3F
S113084071F04795880F97FB991F61F09F3F79F0EE
S113085087950895121613061406551FF2CF469570
S1130860F1DF08C0161617061806991FF1CF8695F2
S11308707105610508940895E894BB2766277727D6
S10D0880CB0197F90895F894FFCF17
S9030000FC
